{
  "_format": "hh-sol-artifact-1",
  "contractName": "BlockSocialV2SimplePayment",
  "sourceName": "contracts/BlockSocialV2SimplePayment.sol",
  "abi": [
    {
      "inputs": [],
      "stateMutability": "nonpayable",
      "type": "constructor"
    },
    {
      "stateMutability": "payable",
      "type": "fallback"
    },
    {
      "inputs": [],
      "name": "deposit",
      "outputs": [],
      "stateMutability": "payable",
      "type": "function"
    },
    {
      "inputs": [
        {
          "internalType": "address",
          "name": "",
          "type": "address"
        }
      ],
      "name": "locked",
      "outputs": [
        {
          "internalType": "bool",
          "name": "",
          "type": "bool"
        }
      ],
      "stateMutability": "view",
      "type": "function"
    },
    {
      "inputs": [],
      "name": "owner",
      "outputs": [
        {
          "internalType": "address",
          "name": "",
          "type": "address"
        }
      ],
      "stateMutability": "view",
      "type": "function"
    },
    {
      "inputs": [],
      "name": "totalMoney",
      "outputs": [
        {
          "internalType": "uint256",
          "name": "",
          "type": "uint256"
        }
      ],
      "stateMutability": "view",
      "type": "function"
    },
    {
      "inputs": [
        {
          "internalType": "uint256",
          "name": "amount",
          "type": "uint256"
        },
        {
          "internalType": "address payable",
          "name": "payee",
          "type": "address"
        }
      ],
      "name": "withdraw",
      "outputs": [],
      "stateMutability": "nonpayable",
      "type": "function"
    },
    {
      "stateMutability": "payable",
      "type": "receive"
    }
  ],
  "bytecode": "0x608060405234801561001057600080fd5b50336000806101000a81548173ffffffffffffffffffffffffffffffffffffffff021916908373ffffffffffffffffffffffffffffffffffffffff160217905550610893806100606000396000f3fe60806040526004361061004d5760003560e01c8062f714ce146100c857806387da21e3146100f15780638da5cb5b1461011c578063cbf9fe5f14610147578063d0e30db0146101845761008d565b3661008d576040517f08c379a0000000000000000000000000000000000000000000000000000000008152600401610084906104df565b60405180910390fd5b6040517f08c379a00000000000000000000000000000000000000000000000000000000081526004016100bf906104df565b60405180910390fd5b3480156100d457600080fd5b506100ef60048036038101906100ea9190610598565b61018e565b005b3480156100fd57600080fd5b506101066103e8565b60405161011391906105e7565b60405180910390f35b34801561012857600080fd5b506101316103f0565b60405161013e9190610623565b60405180910390f35b34801561015357600080fd5b5061016e6004803603810190610169919061066a565b610414565b60405161017b91906106b2565b60405180910390f35b61018c610434565b005b60008054906101000a900473ffffffffffffffffffffffffffffffffffffffff1673ffffffffffffffffffffffffffffffffffffffff163373ffffffffffffffffffffffffffffffffffffffff161461021c576040517f08c379a000000000000000000000000000000000000000000000000000000000815260040161021390610719565b60405180910390fd5b8180471015610260576040517f08c379a0000000000000000000000000000000000000000000000000000000008152600401610257906107d1565b60405180910390fd5b600160008373ffffffffffffffffffffffffffffffffffffffff1673ffffffffffffffffffffffffffffffffffffffff16815260200190815260200160002060009054906101000a900460ff16156102ed576040517f08c379a00000000000000000000000000000000000000000000000000000000081526004016102e49061083d565b60405180910390fd5b60018060008473ffffffffffffffffffffffffffffffffffffffff1673ffffffffffffffffffffffffffffffffffffffff16815260200190815260200160002060006101000a81548160ff0219169083151502179055508173ffffffffffffffffffffffffffffffffffffffff166108fc849081150290604051600060405180830381858888f1935050505015801561038a573d6000803e3d6000fd5b506000600160008473ffffffffffffffffffffffffffffffffffffffff1673ffffffffffffffffffffffffffffffffffffffff16815260200190815260200160002060006101000a81548160ff021916908315150217905550505050565b600047905090565b60008054906101000a900473ffffffffffffffffffffffffffffffffffffffff1681565b60016020528060005260406000206000915054906101000a900460ff1681565b565b600082825260208201905092915050565b7f446972656374207472616e736665727320617265206e6f7420616c6c6f77656460008201527f2e20506c656173652075736520746865206465706f73697428292066756e637460208201527f696f6e2e00000000000000000000000000000000000000000000000000000000604082015250565b60006104c9604483610436565b91506104d482610447565b606082019050919050565b600060208201905081810360008301526104f8816104bc565b9050919050565b600080fd5b6000819050919050565b61051781610504565b811461052257600080fd5b50565b6000813590506105348161050e565b92915050565b600073ffffffffffffffffffffffffffffffffffffffff82169050919050565b60006105658261053a565b9050919050565b6105758161055a565b811461058057600080fd5b50565b6000813590506105928161056c565b92915050565b600080604083850312156105af576105ae6104ff565b5b60006105bd85828601610525565b92505060206105ce85828601610583565b9150509250929050565b6105e181610504565b82525050565b60006020820190506105fc60008301846105d8565b92915050565b600061060d8261053a565b9050919050565b61061d81610602565b82525050565b60006020820190506106386000830184610614565b92915050565b61064781610602565b811461065257600080fd5b50565b6000813590506106648161063e565b92915050565b6000602082840312156106805761067f6104ff565b5b600061068e84828501610655565b91505092915050565b60008115159050919050565b6106ac81610697565b82525050565b60006020820190506106c760008301846106a3565b92915050565b7f4f6e6c79204f776e657200000000000000000000000000000000000000000000600082015250565b6000610703600a83610436565b915061070e826106cd565b602082019050919050565b60006020820190508181036000830152610732816106f6565b9050919050565b7f576520646f6e277420656e6f756768206d6f6e657920666f72207061796d656e60008201527f74732e2041742074686973206d6f6d656e742c206865206b6e65772068652e2e60208201527f2e00000000000000000000000000000000000000000000000000000000000000604082015250565b60006107bb604183610436565b91506107c682610739565b606082019050919050565b600060208201905081810360008301526107ea816107ae565b9050919050565b7f576974686472617720697320616c726561647920696e2070726f67726573732e600082015250565b6000610827602083610436565b9150610832826107f1565b602082019050919050565b600060208201905081810360008301526108568161081a565b905091905056fea2646970667358221220fdbaa2fe5c350ff821fbca10e424972b17575d4003fb06fa1a02ce1ca038c3aa64736f6c63430008080033",
  "linkReferences": {},
  "deployedLinkReferences": {}
}