{
  "_format": "hh-sol-artifact-1",
  "contractName": "ApidonNFT",
  "sourceName": "contracts/ApidonNFT.sol",
  "abi": [
    {
      "inputs": [],
      "stateMutability": "nonpayable",
      "type": "constructor"
    },
    {
      "anonymous": false,
      "inputs": [
        {
          "indexed": true,
          "internalType": "address",
          "name": "owner",
          "type": "address"
        },
        {
          "indexed": true,
          "internalType": "address",
          "name": "approved",
          "type": "address"
        },
        {
          "indexed": true,
          "internalType": "uint256",
          "name": "tokenId",
          "type": "uint256"
        }
      ],
      "name": "Approval",
      "type": "event"
    },
    {
      "anonymous": false,
      "inputs": [
        {
          "indexed": true,
          "internalType": "address",
          "name": "owner",
          "type": "address"
        },
        {
          "indexed": true,
          "internalType": "address",
          "name": "operator",
          "type": "address"
        },
        {
          "indexed": false,
          "internalType": "bool",
          "name": "approved",
          "type": "bool"
        }
      ],
      "name": "ApprovalForAll",
      "type": "event"
    },
    {
      "anonymous": false,
      "inputs": [
        {
          "indexed": true,
          "internalType": "address",
          "name": "from",
          "type": "address"
        },
        {
          "indexed": true,
          "internalType": "uint256",
          "name": "tokenId",
          "type": "uint256"
        }
      ],
      "name": "Minted",
      "type": "event"
    },
    {
      "anonymous": false,
      "inputs": [
        {
          "indexed": true,
          "internalType": "address",
          "name": "previousOwner",
          "type": "address"
        },
        {
          "indexed": true,
          "internalType": "address",
          "name": "newOwner",
          "type": "address"
        }
      ],
      "name": "OwnershipTransferred",
      "type": "event"
    },
    {
      "anonymous": false,
      "inputs": [
        {
          "indexed": true,
          "internalType": "address",
          "name": "from",
          "type": "address"
        },
        {
          "indexed": true,
          "internalType": "address",
          "name": "to",
          "type": "address"
        },
        {
          "indexed": true,
          "internalType": "uint256",
          "name": "tokenId",
          "type": "uint256"
        }
      ],
      "name": "Transfer",
      "type": "event"
    },
    {
      "inputs": [
        {
          "internalType": "address",
          "name": "to",
          "type": "address"
        },
        {
          "internalType": "uint256",
          "name": "tokenId",
          "type": "uint256"
        }
      ],
      "name": "approve",
      "outputs": [],
      "stateMutability": "nonpayable",
      "type": "function"
    },
    {
      "inputs": [
        {
          "internalType": "address",
          "name": "owner",
          "type": "address"
        }
      ],
      "name": "balanceOf",
      "outputs": [
        {
          "internalType": "uint256",
          "name": "",
          "type": "uint256"
        }
      ],
      "stateMutability": "view",
      "type": "function"
    },
    {
      "inputs": [
        {
          "internalType": "uint256",
          "name": "tokenId",
          "type": "uint256"
        }
      ],
      "name": "getApproved",
      "outputs": [
        {
          "internalType": "address",
          "name": "",
          "type": "address"
        }
      ],
      "stateMutability": "view",
      "type": "function"
    },
    {
      "inputs": [],
      "name": "getTokenCount",
      "outputs": [
        {
          "internalType": "uint256",
          "name": "tokenCount",
          "type": "uint256"
        }
      ],
      "stateMutability": "view",
      "type": "function"
    },
    {
      "inputs": [
        {
          "internalType": "address",
          "name": "owner",
          "type": "address"
        },
        {
          "internalType": "address",
          "name": "operator",
          "type": "address"
        }
      ],
      "name": "isApprovedForAll",
      "outputs": [
        {
          "internalType": "bool",
          "name": "",
          "type": "bool"
        }
      ],
      "stateMutability": "view",
      "type": "function"
    },
    {
      "inputs": [
        {
          "internalType": "string",
          "name": "uri",
          "type": "string"
        }
      ],
      "name": "mint",
      "outputs": [],
      "stateMutability": "nonpayable",
      "type": "function"
    },
    {
      "inputs": [],
      "name": "name",
      "outputs": [
        {
          "internalType": "string",
          "name": "",
          "type": "string"
        }
      ],
      "stateMutability": "view",
      "type": "function"
    },
    {
      "inputs": [],
      "name": "owner",
      "outputs": [
        {
          "internalType": "address",
          "name": "",
          "type": "address"
        }
      ],
      "stateMutability": "view",
      "type": "function"
    },
    {
      "inputs": [
        {
          "internalType": "uint256",
          "name": "tokenId",
          "type": "uint256"
        }
      ],
      "name": "ownerOf",
      "outputs": [
        {
          "internalType": "address",
          "name": "",
          "type": "address"
        }
      ],
      "stateMutability": "view",
      "type": "function"
    },
    {
      "inputs": [],
      "name": "renounceOwnership",
      "outputs": [],
      "stateMutability": "nonpayable",
      "type": "function"
    },
    {
      "inputs": [],
      "name": "s_tokenCounter",
      "outputs": [
        {
          "internalType": "uint256",
          "name": "",
          "type": "uint256"
        }
      ],
      "stateMutability": "view",
      "type": "function"
    },
    {
      "inputs": [
        {
          "internalType": "address",
          "name": "from",
          "type": "address"
        },
        {
          "internalType": "address",
          "name": "to",
          "type": "address"
        },
        {
          "internalType": "uint256",
          "name": "tokenId",
          "type": "uint256"
        }
      ],
      "name": "safeTransferFrom",
      "outputs": [],
      "stateMutability": "nonpayable",
      "type": "function"
    },
    {
      "inputs": [
        {
          "internalType": "address",
          "name": "from",
          "type": "address"
        },
        {
          "internalType": "address",
          "name": "to",
          "type": "address"
        },
        {
          "internalType": "uint256",
          "name": "tokenId",
          "type": "uint256"
        },
        {
          "internalType": "bytes",
          "name": "data",
          "type": "bytes"
        }
      ],
      "name": "safeTransferFrom",
      "outputs": [],
      "stateMutability": "nonpayable",
      "type": "function"
    },
    {
      "inputs": [
        {
          "internalType": "address",
          "name": "operator",
          "type": "address"
        },
        {
          "internalType": "bool",
          "name": "approved",
          "type": "bool"
        }
      ],
      "name": "setApprovalForAll",
      "outputs": [],
      "stateMutability": "nonpayable",
      "type": "function"
    },
    {
      "inputs": [
        {
          "internalType": "bytes4",
          "name": "interfaceId",
          "type": "bytes4"
        }
      ],
      "name": "supportsInterface",
      "outputs": [
        {
          "internalType": "bool",
          "name": "",
          "type": "bool"
        }
      ],
      "stateMutability": "view",
      "type": "function"
    },
    {
      "inputs": [],
      "name": "symbol",
      "outputs": [
        {
          "internalType": "string",
          "name": "",
          "type": "string"
        }
      ],
      "stateMutability": "view",
      "type": "function"
    },
    {
      "inputs": [
        {
          "internalType": "uint256",
          "name": "tokenId",
          "type": "uint256"
        }
      ],
      "name": "tokenURI",
      "outputs": [
        {
          "internalType": "string",
          "name": "",
          "type": "string"
        }
      ],
      "stateMutability": "view",
      "type": "function"
    },
    {
      "inputs": [
        {
          "internalType": "address",
          "name": "from",
          "type": "address"
        },
        {
          "internalType": "address",
          "name": "to",
          "type": "address"
        },
        {
          "internalType": "uint256",
          "name": "tokenId",
          "type": "uint256"
        }
      ],
      "name": "transferFrom",
      "outputs": [],
      "stateMutability": "nonpayable",
      "type": "function"
    },
    {
      "inputs": [
        {
          "internalType": "address",
          "name": "newOwner",
          "type": "address"
        }
      ],
      "name": "transferOwnership",
      "outputs": [],
      "stateMutability": "nonpayable",
      "type": "function"
    }
  ],
  "bytecode": "0x60806040523480156200001157600080fd5b506040518060400160405280600981526020017f417069646f6e4e465400000000000000000000000000000000000000000000008152506040518060400160405280600481526020017f4150444e00000000000000000000000000000000000000000000000000000000815250816000908051906020019062000096929190620001ae565b508060019080519060200190620000af929190620001ae565b505050620000d2620000c6620000e060201b60201c565b620000e860201b60201c565b6000600881905550620002c3565b600033905090565b6000600760009054906101000a900473ffffffffffffffffffffffffffffffffffffffff16905081600760006101000a81548173ffffffffffffffffffffffffffffffffffffffff021916908373ffffffffffffffffffffffffffffffffffffffff1602179055508173ffffffffffffffffffffffffffffffffffffffff168173ffffffffffffffffffffffffffffffffffffffff167f8be0079c531659141344cd1fd0a4f28419497f9722a3daafe3b4186f6b6457e060405160405180910390a35050565b828054620001bc906200028d565b90600052602060002090601f016020900481019282620001e057600085556200022c565b82601f10620001fb57805160ff19168380011785556200022c565b828001600101855582156200022c579182015b828111156200022b5782518255916020019190600101906200020e565b5b5090506200023b91906200023f565b5090565b5b808211156200025a57600081600090555060010162000240565b5090565b7f4e487b7100000000000000000000000000000000000000000000000000000000600052602260045260246000fd5b60006002820490506001821680620002a657607f821691505b60208210811415620002bd57620002bc6200025e565b5b50919050565b612d6880620002d36000396000f3fe608060405234801561001057600080fd5b50600436106101215760003560e01c8063715018a6116100ad578063b88d4fde11610071578063b88d4fde146102f6578063c87b56dd14610312578063d85d3d2714610342578063e985e9c51461035e578063f2fde38b1461038e57610121565b8063715018a61461027657806378a89567146102805780638da5cb5b1461029e57806395d89b41146102bc578063a22cb465146102da57610121565b80630b21a83b116100f45780630b21a83b146101c057806323b872dd146101de57806342842e0e146101fa5780636352211e1461021657806370a082311461024657610121565b806301ffc9a71461012657806306fdde0314610156578063081812fc14610174578063095ea7b3146101a4575b600080fd5b610140600480360381019061013b9190611d5b565b6103aa565b60405161014d9190611da3565b60405180910390f35b61015e61048c565b60405161016b9190611e57565b60405180910390f35b61018e60048036038101906101899190611eaf565b61051e565b60405161019b9190611f1d565b60405180910390f35b6101be60048036038101906101b99190611f64565b610564565b005b6101c861067c565b6040516101d59190611fb3565b60405180910390f35b6101f860048036038101906101f39190611fce565b610682565b005b610214600480360381019061020f9190611fce565b6106e2565b005b610230600480360381019061022b9190611eaf565b610702565b60405161023d9190611f1d565b60405180910390f35b610260600480360381019061025b9190612021565b610789565b60405161026d9190611fb3565b60405180910390f35b61027e610841565b005b610288610855565b6040516102959190611fb3565b60405180910390f35b6102a661085f565b6040516102b39190611f1d565b60405180910390f35b6102c4610889565b6040516102d19190611e57565b60405180910390f35b6102f460048036038101906102ef919061207a565b61091b565b005b610310600480360381019061030b91906121ef565b610931565b005b61032c60048036038101906103279190611eaf565b610993565b6040516103399190611e57565b60405180910390f35b61035c60048036038101906103579190612313565b610aa6565b005b6103786004803603810190610373919061235c565b610b29565b6040516103859190611da3565b60405180910390f35b6103a860048036038101906103a39190612021565b610bbd565b005b60007f80ac58cd000000000000000000000000000000000000000000000000000000007bffffffffffffffffffffffffffffffffffffffffffffffffffffffff1916827bffffffffffffffffffffffffffffffffffffffffffffffffffffffff1916148061047557507f5b5e139f000000000000000000000000000000000000000000000000000000007bffffffffffffffffffffffffffffffffffffffffffffffffffffffff1916827bffffffffffffffffffffffffffffffffffffffffffffffffffffffff1916145b80610485575061048482610c41565b5b9050919050565b60606000805461049b906123cb565b80601f01602080910402602001604051908101604052809291908181526020018280546104c7906123cb565b80156105145780601f106104e957610100808354040283529160200191610514565b820191906000526020600020905b8154815290600101906020018083116104f757829003601f168201915b5050505050905090565b600061052982610cab565b6004600083815260200190815260200160002060009054906101000a900473ffffffffffffffffffffffffffffffffffffffff169050919050565b600061056f82610702565b90508073ffffffffffffffffffffffffffffffffffffffff168373ffffffffffffffffffffffffffffffffffffffff1614156105e0576040517f08c379a00000000000000000000000000000000000000000000000000000000081526004016105d79061246f565b60405180910390fd5b8073ffffffffffffffffffffffffffffffffffffffff166105ff610cf6565b73ffffffffffffffffffffffffffffffffffffffff16148061062e575061062d81610628610cf6565b610b29565b5b61066d576040517f08c379a000000000000000000000000000000000000000000000000000000000815260040161066490612501565b60405180910390fd5b6106778383610cfe565b505050565b60085481565b61069361068d610cf6565b82610db7565b6106d2576040517f08c379a00000000000000000000000000000000000000000000000000000000081526004016106c990612593565b60405180910390fd5b6106dd838383610e4c565b505050565b6106fd83838360405180602001604052806000815250610931565b505050565b60008061070e83611146565b9050600073ffffffffffffffffffffffffffffffffffffffff168173ffffffffffffffffffffffffffffffffffffffff161415610780576040517f08c379a0000000000000000000000000000000000000000000000000000000008152600401610777906125ff565b60405180910390fd5b80915050919050565b60008073ffffffffffffffffffffffffffffffffffffffff168273ffffffffffffffffffffffffffffffffffffffff1614156107fa576040517f08c379a00000000000000000000000000000000000000000000000000000000081526004016107f190612691565b60405180910390fd5b600360008373ffffffffffffffffffffffffffffffffffffffff1673ffffffffffffffffffffffffffffffffffffffff168152602001908152602001600020549050919050565b610849611183565b6108536000611201565b565b6000600854905090565b6000600760009054906101000a900473ffffffffffffffffffffffffffffffffffffffff16905090565b606060018054610898906123cb565b80601f01602080910402602001604051908101604052809291908181526020018280546108c4906123cb565b80156109115780601f106108e657610100808354040283529160200191610911565b820191906000526020600020905b8154815290600101906020018083116108f457829003601f168201915b5050505050905090565b61092d610926610cf6565b83836112c7565b5050565b61094261093c610cf6565b83610db7565b610981576040517f08c379a000000000000000000000000000000000000000000000000000000000815260040161097890612593565b60405180910390fd5b61098d84848484611434565b50505050565b606061099e82610cab565b60006006600084815260200190815260200160002080546109be906123cb565b80601f01602080910402602001604051908101604052809291908181526020018280546109ea906123cb565b8015610a375780601f10610a0c57610100808354040283529160200191610a37565b820191906000526020600020905b815481529060010190602001808311610a1a57829003601f168201915b505050505090506000610a48611490565b9050600081511415610a5e578192505050610aa1565b600082511115610a93578082604051602001610a7b9291906126ed565b60405160208183030381529060405292505050610aa1565b610a9c846114a7565b925050505b919050565b610aae611183565b610aba3360085461150f565b610ac66008548261152d565b6008543373ffffffffffffffffffffffffffffffffffffffff167f30385c845b448a36257a6a1716e6ad2e1bc2cbe333cde1e69fe849ad6511adfe60405160405180910390a3600160086000828254610b1f9190612740565b9250508190555050565b6000600560008473ffffffffffffffffffffffffffffffffffffffff1673ffffffffffffffffffffffffffffffffffffffff16815260200190815260200160002060008373ffffffffffffffffffffffffffffffffffffffff1673ffffffffffffffffffffffffffffffffffffffff16815260200190815260200160002060009054906101000a900460ff16905092915050565b610bc5611183565b600073ffffffffffffffffffffffffffffffffffffffff168173ffffffffffffffffffffffffffffffffffffffff161415610c35576040517f08c379a0000000000000000000000000000000000000000000000000000000008152600401610c2c90612808565b60405180910390fd5b610c3e81611201565b50565b60007f01ffc9a7000000000000000000000000000000000000000000000000000000007bffffffffffffffffffffffffffffffffffffffffffffffffffffffff1916827bffffffffffffffffffffffffffffffffffffffffffffffffffffffff1916149050919050565b610cb4816115a1565b610cf3576040517f08c379a0000000000000000000000000000000000000000000000000000000008152600401610cea906125ff565b60405180910390fd5b50565b600033905090565b816004600083815260200190815260200160002060006101000a81548173ffffffffffffffffffffffffffffffffffffffff021916908373ffffffffffffffffffffffffffffffffffffffff160217905550808273ffffffffffffffffffffffffffffffffffffffff16610d7183610702565b73ffffffffffffffffffffffffffffffffffffffff167f8c5be1e5ebec7d5bd14f71427d1e84f3dd0314c0f7b2291e5b200ac8c7c3b92560405160405180910390a45050565b600080610dc383610702565b90508073ffffffffffffffffffffffffffffffffffffffff168473ffffffffffffffffffffffffffffffffffffffff161480610e055750610e048185610b29565b5b80610e4357508373ffffffffffffffffffffffffffffffffffffffff16610e2b8461051e565b73ffffffffffffffffffffffffffffffffffffffff16145b91505092915050565b8273ffffffffffffffffffffffffffffffffffffffff16610e6c82610702565b73ffffffffffffffffffffffffffffffffffffffff1614610ec2576040517f08c379a0000000000000000000000000000000000000000000000000000000008152600401610eb99061289a565b60405180910390fd5b600073ffffffffffffffffffffffffffffffffffffffff168273ffffffffffffffffffffffffffffffffffffffff161415610f32576040517f08c379a0000000000000000000000000000000000000000000000000000000008152600401610f299061292c565b60405180910390fd5b610f3f83838360016115e2565b8273ffffffffffffffffffffffffffffffffffffffff16610f5f82610702565b73ffffffffffffffffffffffffffffffffffffffff1614610fb5576040517f08c379a0000000000000000000000000000000000000000000000000000000008152600401610fac9061289a565b60405180910390fd5b6004600082815260200190815260200160002060006101000a81549073ffffffffffffffffffffffffffffffffffffffff02191690556001600360008573ffffffffffffffffffffffffffffffffffffffff1673ffffffffffffffffffffffffffffffffffffffff168152602001908152602001600020600082825403925050819055506001600360008473ffffffffffffffffffffffffffffffffffffffff1673ffffffffffffffffffffffffffffffffffffffff16815260200190815260200160002060008282540192505081905550816002600083815260200190815260200160002060006101000a81548173ffffffffffffffffffffffffffffffffffffffff021916908373ffffffffffffffffffffffffffffffffffffffff160217905550808273ffffffffffffffffffffffffffffffffffffffff168473ffffffffffffffffffffffffffffffffffffffff167fddf252ad1be2c89b69c2b068fc378daa952ba7f163c4a11628f55a4df523b3ef60405160405180910390a461114183838360016115e8565b505050565b60006002600083815260200190815260200160002060009054906101000a900473ffffffffffffffffffffffffffffffffffffffff169050919050565b61118b610cf6565b73ffffffffffffffffffffffffffffffffffffffff166111a961085f565b73ffffffffffffffffffffffffffffffffffffffff16146111ff576040517f08c379a00000000000000000000000000000000000000000000000000000000081526004016111f690612998565b60405180910390fd5b565b6000600760009054906101000a900473ffffffffffffffffffffffffffffffffffffffff16905081600760006101000a81548173ffffffffffffffffffffffffffffffffffffffff021916908373ffffffffffffffffffffffffffffffffffffffff1602179055508173ffffffffffffffffffffffffffffffffffffffff168173ffffffffffffffffffffffffffffffffffffffff167f8be0079c531659141344cd1fd0a4f28419497f9722a3daafe3b4186f6b6457e060405160405180910390a35050565b8173ffffffffffffffffffffffffffffffffffffffff168373ffffffffffffffffffffffffffffffffffffffff161415611336576040517f08c379a000000000000000000000000000000000000000000000000000000000815260040161132d90612a04565b60405180910390fd5b80600560008573ffffffffffffffffffffffffffffffffffffffff1673ffffffffffffffffffffffffffffffffffffffff16815260200190815260200160002060008473ffffffffffffffffffffffffffffffffffffffff1673ffffffffffffffffffffffffffffffffffffffff16815260200190815260200160002060006101000a81548160ff0219169083151502179055508173ffffffffffffffffffffffffffffffffffffffff168373ffffffffffffffffffffffffffffffffffffffff167f17307eab39ab6107e8899845ad3d59bd9653f200f220920489ca2b5937696c31836040516114279190611da3565b60405180910390a3505050565b61143f848484610e4c565b61144b848484846115ee565b61148a576040517f08c379a000000000000000000000000000000000000000000000000000000000815260040161148190612a96565b60405180910390fd5b50505050565b606060405180602001604052806000815250905090565b60606114b282610cab565b60006114bc611490565b905060008151116114dc5760405180602001604052806000815250611507565b806114e684611785565b6040516020016114f79291906126ed565b6040516020818303038152906040525b915050919050565b61152982826040518060200160405280600081525061185d565b5050565b611536826115a1565b611575576040517f08c379a000000000000000000000000000000000000000000000000000000000815260040161156c90612b28565b60405180910390fd5b8060066000848152602001908152602001600020908051906020019061159c929190611c4c565b505050565b60008073ffffffffffffffffffffffffffffffffffffffff166115c383611146565b73ffffffffffffffffffffffffffffffffffffffff1614159050919050565b50505050565b50505050565b600061160f8473ffffffffffffffffffffffffffffffffffffffff166118b8565b15611778578373ffffffffffffffffffffffffffffffffffffffff1663150b7a02611638610cf6565b8786866040518563ffffffff1660e01b815260040161165a9493929190612b9d565b602060405180830381600087803b15801561167457600080fd5b505af19250505080156116a557506040513d601f19601f820116820180604052508101906116a29190612bfe565b60015b611728573d80600081146116d5576040519150601f19603f3d011682016040523d82523d6000602084013e6116da565b606091505b50600081511415611720576040517f08c379a000000000000000000000000000000000000000000000000000000000815260040161171790612a96565b60405180910390fd5b805181602001fd5b63150b7a0260e01b7bffffffffffffffffffffffffffffffffffffffffffffffffffffffff1916817bffffffffffffffffffffffffffffffffffffffffffffffffffffffff19161491505061177d565b600190505b949350505050565b606060006001611794846118db565b01905060008167ffffffffffffffff8111156117b3576117b26120c4565b5b6040519080825280601f01601f1916602001820160405280156117e55781602001600182028036833780820191505090505b509050600082602001820190505b600115611852578080600190039150507f3031323334353637383961626364656600000000000000000000000000000000600a86061a8153600a858161183c5761183b612c2b565b5b049450600085141561184d57611852565b6117f3565b819350505050919050565b6118678383611a2e565b61187460008484846115ee565b6118b3576040517f08c379a00000000000000000000000000000000000000000000000000000000081526004016118aa90612a96565b60405180910390fd5b505050565b6000808273ffffffffffffffffffffffffffffffffffffffff163b119050919050565b600080600090507a184f03e93ff9f4daa797ed6e38ed64bf6a1f0100000000000000008310611939577a184f03e93ff9f4daa797ed6e38ed64bf6a1f010000000000000000838161192f5761192e612c2b565b5b0492506040810190505b6d04ee2d6d415b85acef81000000008310611976576d04ee2d6d415b85acef8100000000838161196c5761196b612c2b565b5b0492506020810190505b662386f26fc1000083106119a557662386f26fc10000838161199b5761199a612c2b565b5b0492506010810190505b6305f5e10083106119ce576305f5e10083816119c4576119c3612c2b565b5b0492506008810190505b61271083106119f35761271083816119e9576119e8612c2b565b5b0492506004810190505b60648310611a165760648381611a0c57611a0b612c2b565b5b0492506002810190505b600a8310611a25576001810190505b80915050919050565b600073ffffffffffffffffffffffffffffffffffffffff168273ffffffffffffffffffffffffffffffffffffffff161415611a9e576040517f08c379a0000000000000000000000000000000000000000000000000000000008152600401611a9590612ca6565b60405180910390fd5b611aa7816115a1565b15611ae7576040517f08c379a0000000000000000000000000000000000000000000000000000000008152600401611ade90612d12565b60405180910390fd5b611af56000838360016115e2565b611afe816115a1565b15611b3e576040517f08c379a0000000000000000000000000000000000000000000000000000000008152600401611b3590612d12565b60405180910390fd5b6001600360008473ffffffffffffffffffffffffffffffffffffffff1673ffffffffffffffffffffffffffffffffffffffff16815260200190815260200160002060008282540192505081905550816002600083815260200190815260200160002060006101000a81548173ffffffffffffffffffffffffffffffffffffffff021916908373ffffffffffffffffffffffffffffffffffffffff160217905550808273ffffffffffffffffffffffffffffffffffffffff16600073ffffffffffffffffffffffffffffffffffffffff167fddf252ad1be2c89b69c2b068fc378daa952ba7f163c4a11628f55a4df523b3ef60405160405180910390a4611c486000838360016115e8565b5050565b828054611c58906123cb565b90600052602060002090601f016020900481019282611c7a5760008555611cc1565b82601f10611c9357805160ff1916838001178555611cc1565b82800160010185558215611cc1579182015b82811115611cc0578251825591602001919060010190611ca5565b5b509050611cce9190611cd2565b5090565b5b80821115611ceb576000816000905550600101611cd3565b5090565b6000604051905090565b600080fd5b600080fd5b60007fffffffff0000000000000000000000000000000000000000000000000000000082169050919050565b611d3881611d03565b8114611d4357600080fd5b50565b600081359050611d5581611d2f565b92915050565b600060208284031215611d7157611d70611cf9565b5b6000611d7f84828501611d46565b91505092915050565b60008115159050919050565b611d9d81611d88565b82525050565b6000602082019050611db86000830184611d94565b92915050565b600081519050919050565b600082825260208201905092915050565b60005b83811015611df8578082015181840152602081019050611ddd565b83811115611e07576000848401525b50505050565b6000601f19601f8301169050919050565b6000611e2982611dbe565b611e338185611dc9565b9350611e43818560208601611dda565b611e4c81611e0d565b840191505092915050565b60006020820190508181036000830152611e718184611e1e565b905092915050565b6000819050919050565b611e8c81611e79565b8114611e9757600080fd5b50565b600081359050611ea981611e83565b92915050565b600060208284031215611ec557611ec4611cf9565b5b6000611ed384828501611e9a565b91505092915050565b600073ffffffffffffffffffffffffffffffffffffffff82169050919050565b6000611f0782611edc565b9050919050565b611f1781611efc565b82525050565b6000602082019050611f326000830184611f0e565b92915050565b611f4181611efc565b8114611f4c57600080fd5b50565b600081359050611f5e81611f38565b92915050565b60008060408385031215611f7b57611f7a611cf9565b5b6000611f8985828601611f4f565b9250506020611f9a85828601611e9a565b9150509250929050565b611fad81611e79565b82525050565b6000602082019050611fc86000830184611fa4565b92915050565b600080600060608486031215611fe757611fe6611cf9565b5b6000611ff586828701611f4f565b935050602061200686828701611f4f565b925050604061201786828701611e9a565b9150509250925092565b60006020828403121561203757612036611cf9565b5b600061204584828501611f4f565b91505092915050565b61205781611d88565b811461206257600080fd5b50565b6000813590506120748161204e565b92915050565b6000806040838503121561209157612090611cf9565b5b600061209f85828601611f4f565b92505060206120b085828601612065565b9150509250929050565b600080fd5b600080fd5b7f4e487b7100000000000000000000000000000000000000000000000000000000600052604160045260246000fd5b6120fc82611e0d565b810181811067ffffffffffffffff8211171561211b5761211a6120c4565b5b80604052505050565b600061212e611cef565b905061213a82826120f3565b919050565b600067ffffffffffffffff82111561215a576121596120c4565b5b61216382611e0d565b9050602081019050919050565b82818337600083830152505050565b600061219261218d8461213f565b612124565b9050828152602081018484840111156121ae576121ad6120bf565b5b6121b9848285612170565b509392505050565b600082601f8301126121d6576121d56120ba565b5b81356121e684826020860161217f565b91505092915050565b6000806000806080858703121561220957612208611cf9565b5b600061221787828801611f4f565b945050602061222887828801611f4f565b935050604061223987828801611e9a565b925050606085013567ffffffffffffffff81111561225a57612259611cfe565b5b612266878288016121c1565b91505092959194509250565b600067ffffffffffffffff82111561228d5761228c6120c4565b5b61229682611e0d565b9050602081019050919050565b60006122b66122b184612272565b612124565b9050828152602081018484840111156122d2576122d16120bf565b5b6122dd848285612170565b509392505050565b600082601f8301126122fa576122f96120ba565b5b813561230a8482602086016122a3565b91505092915050565b60006020828403121561232957612328611cf9565b5b600082013567ffffffffffffffff81111561234757612346611cfe565b5b612353848285016122e5565b91505092915050565b6000806040838503121561237357612372611cf9565b5b600061238185828601611f4f565b925050602061239285828601611f4f565b9150509250929050565b7f4e487b7100000000000000000000000000000000000000000000000000000000600052602260045260246000fd5b600060028204905060018216806123e357607f821691505b602082108114156123f7576123f661239c565b5b50919050565b7f4552433732313a20617070726f76616c20746f2063757272656e74206f776e6560008201527f7200000000000000000000000000000000000000000000000000000000000000602082015250565b6000612459602183611dc9565b9150612464826123fd565b604082019050919050565b600060208201905081810360008301526124888161244c565b9050919050565b7f4552433732313a20617070726f76652063616c6c6572206973206e6f7420746f60008201527f6b656e206f776e6572206f7220617070726f76656420666f7220616c6c000000602082015250565b60006124eb603d83611dc9565b91506124f68261248f565b604082019050919050565b6000602082019050818103600083015261251a816124de565b9050919050565b7f4552433732313a2063616c6c6572206973206e6f7420746f6b656e206f776e6560008201527f72206f7220617070726f76656400000000000000000000000000000000000000602082015250565b600061257d602d83611dc9565b915061258882612521565b604082019050919050565b600060208201905081810360008301526125ac81612570565b9050919050565b7f4552433732313a20696e76616c696420746f6b656e2049440000000000000000600082015250565b60006125e9601883611dc9565b91506125f4826125b3565b602082019050919050565b60006020820190508181036000830152612618816125dc565b9050919050565b7f4552433732313a2061646472657373207a65726f206973206e6f74206120766160008201527f6c6964206f776e65720000000000000000000000000000000000000000000000602082015250565b600061267b602983611dc9565b91506126868261261f565b604082019050919050565b600060208201905081810360008301526126aa8161266e565b9050919050565b600081905092915050565b60006126c782611dbe565b6126d181856126b1565b93506126e1818560208601611dda565b80840191505092915050565b60006126f982856126bc565b915061270582846126bc565b91508190509392505050565b7f4e487b7100000000000000000000000000000000000000000000000000000000600052601160045260246000fd5b600061274b82611e79565b915061275683611e79565b9250827fffffffffffffffffffffffffffffffffffffffffffffffffffffffffffffffff0382111561278b5761278a612711565b5b828201905092915050565b7f4f776e61626c653a206e6577206f776e657220697320746865207a65726f206160008201527f6464726573730000000000000000000000000000000000000000000000000000602082015250565b60006127f2602683611dc9565b91506127fd82612796565b604082019050919050565b60006020820190508181036000830152612821816127e5565b9050919050565b7f4552433732313a207472616e736665722066726f6d20696e636f72726563742060008201527f6f776e6572000000000000000000000000000000000000000000000000000000602082015250565b6000612884602583611dc9565b915061288f82612828565b604082019050919050565b600060208201905081810360008301526128b381612877565b9050919050565b7f4552433732313a207472616e7366657220746f20746865207a65726f2061646460008201527f7265737300000000000000000000000000000000000000000000000000000000602082015250565b6000612916602483611dc9565b9150612921826128ba565b604082019050919050565b6000602082019050818103600083015261294581612909565b9050919050565b7f4f776e61626c653a2063616c6c6572206973206e6f7420746865206f776e6572600082015250565b6000612982602083611dc9565b915061298d8261294c565b602082019050919050565b600060208201905081810360008301526129b181612975565b9050919050565b7f4552433732313a20617070726f766520746f2063616c6c657200000000000000600082015250565b60006129ee601983611dc9565b91506129f9826129b8565b602082019050919050565b60006020820190508181036000830152612a1d816129e1565b9050919050565b7f4552433732313a207472616e7366657220746f206e6f6e20455243373231526560008201527f63656976657220696d706c656d656e7465720000000000000000000000000000602082015250565b6000612a80603283611dc9565b9150612a8b82612a24565b604082019050919050565b60006020820190508181036000830152612aaf81612a73565b9050919050565b7f45524337323155524953746f726167653a2055524920736574206f66206e6f6e60008201527f6578697374656e7420746f6b656e000000000000000000000000000000000000602082015250565b6000612b12602e83611dc9565b9150612b1d82612ab6565b604082019050919050565b60006020820190508181036000830152612b4181612b05565b9050919050565b600081519050919050565b600082825260208201905092915050565b6000612b6f82612b48565b612b798185612b53565b9350612b89818560208601611dda565b612b9281611e0d565b840191505092915050565b6000608082019050612bb26000830187611f0e565b612bbf6020830186611f0e565b612bcc6040830185611fa4565b8181036060830152612bde8184612b64565b905095945050505050565b600081519050612bf881611d2f565b92915050565b600060208284031215612c1457612c13611cf9565b5b6000612c2284828501612be9565b91505092915050565b7f4e487b7100000000000000000000000000000000000000000000000000000000600052601260045260246000fd5b7f4552433732313a206d696e7420746f20746865207a65726f2061646472657373600082015250565b6000612c90602083611dc9565b9150612c9b82612c5a565b602082019050919050565b60006020820190508181036000830152612cbf81612c83565b9050919050565b7f4552433732313a20746f6b656e20616c7265616479206d696e74656400000000600082015250565b6000612cfc601c83611dc9565b9150612d0782612cc6565b602082019050919050565b60006020820190508181036000830152612d2b81612cef565b905091905056fea264697066735822122040a007d4fc8656ddeb02d6e83aaac3cbdcea719f135f15b1e960cfbc43bcc55e64736f6c63430008080033",
  "linkReferences": {},
  "deployedLinkReferences": {}
}